:1000000003308A00372B0000FF00030E8301A1009C
:100010000A08A0008A010408A2007708A300780853
:10002000A4007908A5007A08A60003170D08031399
:10003000A70003170F080313A80003170C080313E6
:10004000A90003170E080313AA00831383128B1E43
:100050002B280B194C28220884002308F7002408B9
:10006000F8002508F9002608FA00270803178D0074
:100070000313280803178F000313290803178C00A4
:1000800003132A0803178E00031320088A00210E89
:100090008300FF0E7F0E09008A110A124F28010803
:1000A000063ED600560881002D080319AE03AD0B9D
:1000B0006028AE08031D60282C14AE016430AD002A
:1000C0000B118A110A122B28481DA01230194C322C
:1000D000A512A01230194C32A512A0274E10A01262
:1000E0006300481DA0123019CC3AA512A012301995
:1000F000CC3AA512A0274623A0126300461DA012E9
:100100003019CC3AA512A0123019CC3AA512A0276A
:100110004E10A0126300461DA0123019CC3AA51251
:10012000A0123019CC3AA512A0274623A0126300D2
:100130005408003A0319A928013A0319AF28033AD1
:100140000319B528013A0319BD28073A0319C32832
:10015000CB2883168501831255088500CB2883168A
:100160008601831255088600CB280030AB00831629
:100170008701831255088700CB28831688018312D4
:1001800055088800CB28831609108910091183129D
:1001900055088900CB2808000D30F700F70BCE2852
:1001A000831609108312091083160911831209118D
:1001B0000330D4004D08D50098208316891083128F
:1001C00089140D30F700F70BE3288316891083128A
:1001D0008910080049308400831300080319FE28A1
:1001E0000130F800F701F70BF328F80BF2284A303A
:1001F000F700F70BF928FC28800BF028080083167D
:100200008910831289103830CD00CC200F30C900FE
:10021000EA200130CD00CC200A30C900EA200C30A1
:10022000CD00CC200A30C900EA200630CD00CC2019
:100230000A30C900EA208A110A12852B8E30F70095
:100240004A08F8004908F900FA01F808031D3229A4
:100250007908F800F9010830F702F808031D32297F
:10026000F7013A290310F81B3929F90DF80DF703A6
:100270003229F813080049080319AB29D1004D08A9
:100280000319AB29D10703184C297F30D102031C75
:10029000AB290319AB2950298130D1070318AB29A9
:1002A0005108F700F801F901FA014A08D500D517FD
:1002B0004B08D4004C08D3001830D100D201531C95
:1002C00079295008FA07031C6B29F90A031D6B29C9
:1002D000F80A0319D2174F08F907031C7229F80A04
:1002E0000319D2174E08CB00CB174B08F807031899
:1002F000D217D20DF80CF90CFA0CD50CD40CD30C87
:100300000310D10B5E290130F7070318AB29F81B46
:100310009029D50DFA0DF90DF80DF7030319AB2946
:10032000D51FA129FA0A031DA129F90A031DA12934
:10033000F80A031DA129F80CF90CFA0CF70A0319A5
:10034000AB294A08D2004E08D206D21FA929F817B5
:10035000AF29F813AF29F701F801F901FA010800F4
:100360008E30F7004908F7024A08F9004B08F800F8
:10037000F917F7080319C7290310F908031DC32942
:10038000F8080319C729F90CF80CF70BBC29CA1F88
:10039000CE29F809F909F80A0319F90A08004A0BE5
:1003A000D229D5294030CB00D629CB0101304902D2
:1003B000CB074B088038CC00CD00CC2008000D3096
:1003C000F700F70BE129831609108312091483162D
:1003D0000911831209110330D4005308D500982065
:1003E00083168910831289140D30F700F70BF62954
:1003F00083168910831289100800D2010408D100E5
:100400005210831B5214CB1F0D2AD117511ED10A33
:10041000CA09CB09CA0A0319CB0A4B0EF038CD0022
:10042000CD07E23ECE00323ED0004B080F39CE075A
:10043000CE07D007E93ECF00CF07CF074A0E0F39CE
:10044000CF07D007CF0DD00DD009D00D4A080F39F6
:10045000D007CD0D0730CC000A30D007CF03031CE6
:100460002D2ACF07CE03031C312ACE07CD03031C50
:10047000352ACD07CC03031C392A4C308400831362
:1004800007305105511384035105031D4E2A511A9B
:10049000840A511A4E2A2030F7006B2A8407503004
:1004A0000402031951170008F700031D5F2A511BAE
:1004B0005F2A511A792AD1195F2A20306A2AD11F5E
:1004C000672A2D30F70084035113D1136B2AD115FD
:1004D00051123030F707CB010408CA004B10831BC0
:1004E0004B147708D300DF214A08840083134B188C
:1004F0008317840A511F4F2A08000B08CB008B1367
:10050000831603178C170C140000000083120313CA
:10051000CB1B8B170318B42A03170C087F3903135E
:10052000CB0003170D080313CC0003170F080313A8
:10053000CD004B08D300DF214C0803178D000313B7
:100540004D0803178F0003130B08CE008B1383167F
:1005500003178C170C140000000083120313CE1B2A
:100560008B17CA0BB42AD32A03170C0D0E0D7F3933
:100570000313CB0003170D080313CC0003170F0858
:100580000313CD004B08D300DF214C0803178D0067
:1005900003134D0803178F008D0A03198F0A0310E8
:1005A0000313CA0B7D2A0800D2010408D10052109F
:1005B000831B52144B0EF038CD00CD07E23ECE0027
:1005C000323ED0004B080F39CE07CE07D007E93EA8
:1005D000CF00CF07CF074A0E0F39CF07D007CF0D77
:1005E000D00DD009D00D4A080F39D007CD0D0730F6
:1005F000CC000A30D007CF03031CFA2ACF07CE0362
:10060000031CFE2ACE07CD03031C022BCD07CC030F
:10061000031C062B4C308400831307305105511303
:10062000840750300402031951170008F700031D16
:10063000212B511B212B511A332BD119212B203067
:10064000242BD11551123030F707CB010408CA0012
:100650004B10831B4B147708D300DF214A0884001A
:1006600083134B188317840A511F112B08000308AA
:100670001F398300FF30AB002C10AE016430AD0099
:10068000AC14C001FA30BF00C201C100C401C300F4
:10069000C601C50083161F149F141F159F11073034
:1006A0009C0083131F109F101F159F111F1383128F
:1006B0001F179F1783169F1783121F148316010895
:1006C000C039013881000030F800043883129200EC
:1006D000C7308316920083122B112B0883168700D4
:1006E000831207110C309700AB102B08831687007C
:1006F000831287100C309D0095011708CF399700A1
:100700009B011D08CF399D00FF288B16C0308B043C
:100710002C1C422D2C100030F8001F08C73978041B
:100720009F001F151F19922B83161E088312AF00FE
:100730001E08B0003008CA002F08C9001E217A0820
:10074000CC007908CB007808CA007708C900D0012E
:10075000CF014830CE007B30CD003B217A08CC0061
:100760007908CB007808CA007708C900B021790859
:10077000B8007808B7003208CA003108C9001E2145
:100780007A08CC007908CB007808CA007708C9003D
:10079000D001CF014830CE007B30CD003B217A081C
:1007A000CC007908CB007808CA007708C900B021CE
:1007B0007908BA007808B9000130C900CA00CF2111
:1007C000AC1D162CAC1CE62B7830E72B2030C90072
:1007D0004830D300DF213A30D300DF212030D3006E
:1007E000DF210C3084003808CB003708CA00FD2117
:1007F0002530D300DF212030D300DF210C308400EE
:100800003A08CB003908CA00FD212530D300DF218A
:100810006D3003178D0000308F0003100530031377
:10082000CA007D224908D300DF21492CAC1C1A2CB8
:1008300078301B2C2030C9004830D300DF213A30FB
:10084000D300DF212030D300DF210B3084003808B3
:10085000CB003708CA00D4222530D300DF21203056
:10086000D300DF210B3084003A08CB003908CA00DE
:10087000D4222530D300DF217A3003178D000030D9
:100880008F00031005300313CA007D224908D300EE
:10089000DF21AC1D652C390DC9003A0DCA00C90D08
:1008A000CA0DC90DCA0DF830C905CA0CC90CCA0C4D
:1008B000C90CCA0C49089500CA0C4A0C3039F7001B
:1008C0001708CF3977049700662C95011030F8008F
:1008D0001F08C73978049F001F151F196D2C831638
:1008E0001E088312B3001E08B4003408CA0033087F
:1008F000C9001E217A08CC007908CB007808CA000C
:100900007708C900D001CF014830CE007B30CD0040
:100910003B217A08CC007908CB007808CA00770818
:10092000C900B0217908BC007808BB003608CA00AD
:100930003508C9001E217A08CC007908CB00780858
:10094000CA007708C900D001CF014830CE007B3003
:10095000CD003B217A08CC007908CB007808CA008A
:100960007708C900B0217908BE007808BD000130C1
:10097000C9000230CA00CF212C1DF22CAC18C22CA9
:100980007830C32C2030C9004630D300DF213A3004
:10099000D300DF212030D300DF210B3084003C085E
:1009A000CB003B08CA00D4222530D300DF21203001
:1009B000D300DF210B3084003E08CB003D08CA0085
:1009C000D4222530D300DF21873003178D0000307B
:1009D0008F00031005300313CA007D224908D3009D
:1009E000DF21252DAC18F62C7830F72C2030C900EB
:1009F0004630D300DF213A30D300DF212030D3004E
:100A0000DF210B3084003C08CB003B08CA00D42215
:100A10002530D300DF212030D300DF210B308400CC
:100A20003E08CB003D08CA00D4222530D300DF2188
:100A3000943003178D0000308F000310053003132E
:100A4000CA007D224908D300DF212C1D412D3D0D18
:100A5000C9003E0DCA00C90DCA0DC90DCA0DF83036
:100A6000C905CA0CC90CCA0CC90CCA0C49089B00A0
:100A7000CA0C4A0C3039F7001D08CF3977049D00A5
:100A8000422D9B018316061483120618512D8316DE
:100A900006148312061C472DC001FA30BF0008302F
:100AA000AC06C001FA30BF00831686148312861884
:100AB000632D831686148312861C592DC201FA30C9
:100AC000C1000430AC06C201FA30C100831606151D
:100AD00083120619752D831606158312061D6B2DBC
:100AE000C401FA30C3000230AC06C401FA30C300BE
:100AF00083168615831286199F2D831686158312F9
:100B0000861D7D2DC601FA30C5000830F8001F088B
:100B1000C73978049F001F151F198C2D83161E08D6
:100B20008312C7001E08C800AC1C9B2D4808B200E9
:100B30004708B1009F2D4808B6004708B500C60118
:080B4000FA30C500882B6300A8
:02400E00713F00
:00000001FF
;PIC16F877A
;CRC=88E0  CREATED="09-Dec-25 08:44"
